:100000000213ED121C87C283021C930218FBC284E8
:10001000121C93C283D284121C93C284121C93D2EA
:02002000832239
:100023000218B4E709F608DFFA8046E709F208DFA9
:10003300FA803E88828C83E709F0A3DFFA8032E3FB
:1000430009F608DFFA8078E309F208DFFA8070889E
:10005300828C83E309F0A3DFFA806489828A83E0D8
:10006300A3F608DFFA805889828A83E0A3F208DFC7
:10007300FA804C80D280FA80C680D4806980F28076
:1000830033801080A680EA809A80A880DA80E2809C
:10009300CA803389828A83ECFAE493A3C8C582C8F1
:1000A300CCC583CCF0A3C8C582C8CCC583CCDFE95B
:1000B300DEE7800D89828A83E493A3F608DFF9ECF7
:1000C300FAA9F0EDFB2289828A83ECFAE0A3C8C582
:1000D30082C8CCC583CCF0A3C8C582C8CCC583CCA9
:1000E300DFEADEE880DB89828A83E493A3F208DF18
:1000F300F980CC88F0EF60010E4E60C388F0ED24E8
:1001030002B4040050B9F582EB2402B4040050AFEA
:10011300232345822390007673BB010689828A8359
:10012300E0225002E722BBFE02E32289828A83E4B3
:100133009322BB010CE58229F582E5833AF583E03E
:10014300225006E92582F8E622BBFE06E92582F85D
:10015300E222E58229F582E5833AF583E49322BB23
:10016300010689828A83F0225002F722BBFE01F343
:1001730022F8BB010DE58229F582E5833AF583E890
:10018300F0225006E92582C8F622BBFE05E9258246
:10019300C8F222F8BB0111E58229F582E5833AF51D
:1001A30083E8F0E5F0A3F0225009E92582C8F608B8
:1001B300A6F022BBFE09E92582C8F2E5F008F22287
:1001C300E88FF0A4CC8BF0A42CFCE98EF0A42CFCDB
:1001D3008AF0EDA42CFCEA8EF0A4CDA8F08BF0A459
:1001E3002DCC3825F0FDE98FF0A42CCD35F0FCEBB8
:1001F3008EF0A4FEA9F0EB8FF0A4CFC5F02ECD397D
:10020300FEE43CFCEAA42DCE35F0FDE43CFC227573
:10021300F008758200EF2FFFEE33FECD33CDCC33E4
:10022300CCC58233C5829BED9AEC99E58298400C4C
:10023300F582EE9BFEED9AFDEC99FC0FD5F0D6E42A
:10024300CEFBE4CDFAE4CCF9A88222B800C1B90010
:1002530059BA002DEC8BF084CFCECDFCE5F0CBF971
:100263007818EF2FFFEE33FEED33FDEC33FCEB3369
:10027300FB10D703994004EB99FB0FD8E5E4F9FA97
:10028300227818EF2FFFEE33FEED33FDEC33FCC97C
:1002930033C910D7059BE99A4007EC9BFCE99AF90F
:1002A3000FD8E0E4C9FAE4CCFB2275F010EF2FFF7E
:1002B300EE33FEED33FDCC33CCC833C810D7079BE8
:1002C300EC9AE899400AED9BFDEC9AFCE899F80F4B
:1002D300D5F0DAE4CDFBE4CCFAE4C8F922C3E49F19
:1002E300FFE49EFEE49DFDE49CFC22EB9FF5F0EA17
:1002F3009E42F0E99D42F0EC6480C864809845F02A
:1003030022EB9FF5F0EA9E42F0E99D42F0E89C451E
:10031300F022E8600FECC313FCED13FDEE13FEEFC8
:1003230013FFD8F122E8600FEFC333FFEE33FEED86
:1003330033FDEC33FCD8F122BB010789828A8302A7
:1003430005CF5005E9F80205ADBBFE05E9F8020546
:10035300E189828A830205F3BB011A89828A83D0E9
:10036300F0D0E0F8D0E0F9D0E0FAD0E0FBE8C0E06C
:10037300C0F00205D85016E9F8D083D082D0E0F956
:10038300D0E0FAD0E0FBC082C0830205C6BBFE16F4
:10039300E9F8D083D082D0E0F9D0E0FAD0E0FBC016
:1003A30082C0830205EA22EC8EF0A4CCC5F0CCCD4A
:1003B300F8EFA4CEC5F02DFDE43CFCE8A42EC8C59F
:1003C300F03DFDE43CFCEFA4FFE5F028FEE43DFD39
:1003D300E43CFC22E3F5F009E208B5F06BDFF580BD
:1003E30067E3F5F009E608B5F05EDFF5805A87F0BC
:1003F30009E608B5F052DFF6804E87F009E208B54A
:10040300F046DFF6804288828C8387F009E0A3B54B
:10041300F036DFF6803288828C8387F009E493A379
:10042300B5F025DFF5802188828C83E3F5F009E0C0
:10043300A3B5F014DFF5801088828C83E3F5F0090F
:10044300E493A3B5F002DFF4020506808780E98018
:100453009080D4803E8015806E807E809D80B780A2
:100463008D80A380518074803C02051289828A8327
:10047300ECFAE493F5F0A3C8C582C8CCC583CCE4F9
:1004830093A3C8C582C8CCC583CCB5F076DFE3DEC1
:10049300E1807089828A83E493F5F0A3E208B5F0E2
:1004A30062DFF4805E89828A83E0F5F0A3E608B513
:1004B300F051DFF5804D89828A83E0F5F0A3E208ED
:1004C300B5F040DFF5803C89828A83E493F5F0A39D
:1004D300E608B5F02EDFF4802A8002805789828AED
:1004E30083ECFAE493F5F0A3C8C582C8CCC583CCEA
:1004F300E0A3C8C582C8CCC583CCB5F006DFE4DE73
:10050300E280007FFFB5F0020F2240027F012289C3
:10051300828A83ECFAE0F5F0A3C8C582C8CCC58310
:10052300CCE0A3C8C582C8CCC583CCB5F0D5DFE584
:10053300DEE380CF89828A83ECFAE0F5F0A3C8C5B5
:1005430082C8CCC583CCE493A3C8C582C8CCC58379
:10055300CCB5F0AFDFE4DEE280A988F0EF60010EF6
:100563004E60ABED2402B404005098F582EB2402F4
:10057300B40400508E232345822390044E73EF4E20
:100583006012EF60010EEDBB010B89828A83F0A339
:10059300DFFCDEFA2289F05007F709DFFCA9F0221D
:1005A300BBFEFCF309DFFCA9F022E6FB08E6FA0830
:1005B300E6F922FAE6FB0808E6F925F0F618E6CA9A
:1005C3003AF622EBF608EAF608E9F622E0FBA3E0A6
:1005D300FAA3E0F922EBF0A3EAF0A3E9F022E2FBAD
:1005E30008E2FA08E2F922EBF208EAF208E9F22259
:1005F300E493FB740193FA740293F922D083D082BB
:10060300F8E4937012740193700DA3A393F874012B
:1006130093F5828883E4737402936860EFA3A3A3C2
:1006230080DFE546243AF8E60546227837300A02A9
:10063300783AE475F0011205B602011C2003EB7F42
:100643002ED2038018EF540F2490D43440D4FF30BB
:10065300070BEF24BFB41A0050032461FFE5476082
:10066300021547054AE54A70020549300A0D7837F5
:10067300E475F0011205B6EF020162021D35740341
:10068300D20A8003E4C20AF5468B378A388939E4F3
:10069300F547F549F54AE54760077F201206608074
:1006A300F57548FFC204C203C205C206C208C209E7
:1006B300C20B12062EFF700D300A057F0012067161
:1006C300AF4AAE4922B4255FC2D5C20712062EFF38
:1006D30024D0B40A00501A75F00A784730D50508BB
:1006E300B6FF0106C6A426F620D5047002D2068002
:1006F300D924CFB41A00EF5004C2E5D2070208711F
:10070300D20480C6D20380C0D20580BCD2D580BAC1
:10071300D20880B47F201206602005077401B54714
:100723000040F1120625FF120660020699D20BD291
:10073300098095120625FB120625FA120625F94AA9
:100743004B700679427A097BFF20052EE547602A24
:100753007E008E8275830012013560060EEE6548B9
:1007630070F0C2D5EBC0E0EAC0E0E9C0E0EE1208E9
:10077300B8D0E0F9D0E0FAD0E0FB12011CFF60AA88
:10078300EBC0E0EAC0E0E9C0E0120660D0E024017B
:10079300F9D0E03400FAD0E0FBE5480460DCD5484A
:1007A300D980877BFF7A0879B4D205809C79108041
:1007B300027908C209C20B8008D2D5790A8004796C
:1007C3000AC2D5E548047002F548E4FAFDFEFF12BB
:1007D3000625FC7B08200413120625FD7B1030033D
:1007E3000A120625FE120625FF7B20EC3382D592E2
:1007F300D55013C3E43003069FFFE49EFEE42004B8
:10080300039DFDE49CFCE4CBF8C204EC700CCFCE5A
:10081300CDCCE824F8F870F38017C3EF33FFEE3341
:10082300FEED33FDEC33FCEB33FB994002FB0FD8B9
:10083300E9EB300405F8D0E0C448B204C0E00AECA8
:100843004D4E4F78207B0070C2EAB5480040BCC0D3
:10085300E01208BAD0F0D0E0200404C4C0E0C4B26F
:1008630004C0F0120649D0F0D5F0EB020699120548
:10087300FF07365307B05807074C07034207B44F27
:1008830007BC4407BC49071C4307C25507A64607D4
:10089300A64507A647096250070B2D070F2E0732FF
:1008A3002B071323073020094B2A06CB48000007E8
:1008B3002A3F3F3F00790AA2D5200614300809B920
:1008C30010020404B9080104A2D52009025001044E
:1008D3002005689205B547005034C0E07F203006FC
:1008E300197F30A20572097208500F120911C2054F
:1008F300C209C208C20B7F30800F300803E9C0E091
:10090300120660300803D0E0F9D0E0B547CC3008D8
:10091300177F30B9100C1206607F583007077F78B5
:100923008003B908031206603005057F2D020660B7
:100933007F20200BF87F2B2009F322920580CF28FC
:100943006E756C6C2900D2041206253004F8C204BB
:10095300784730D50108F60206CB2D50434958128B
:1009630006252403B405004001E490095D931206B3
:1009730051743A120651D2067547040207B08B2C04
:100983008A2D892E8D2F852F82758300742C120159
:1009930074E52FD394035003020B82AB2CAA2DA929
:1009A3002E12011C64476003020A4BA801AC02AD7E
:1009B300037BFF7A0D79F0FE7F0612055DEF70175A
:1009C3007BFF7A0D79F7120687753AFF753B0E7533
:1009D3003C0685183D805BA82EAC2DAD2C7BFF7AA1
:1009E3000E790F7E007F0612055DEF70177BFF7A8D
:1009F3000E7916120687753AFF753B0E753C2A85EC
:100A0300193D802EA82EAC2DAD2C7BFF7A0E7937A5
:100A13007E007F0612055DEF6003020B827BFF7A87
:100A23000E793E120687753AFF753B0E753C4F856E
:100A33001A3D7B007A00794D1206818F2F7B007A55
:100A430000794DAD2F02193CAB2CAA2DA92E120112
:100A53001C64536003020B82A801AC02AD037BFF4D
:100A63007A0E795AFE7F0612055DEF70517BFF7A8D
:100A73000E79611206871212A68F338E328D318C56
:100A8300307BFF7A0E79708F3D8E3C8D3B8C3A1212
:100A93000687E4FFFEFDFCAB33AA32A931A830D3AD
:100AA3001202EE5003020B82E47FFAFEFDFCA83033
:100AB3001202EE4003020B8285331C020B7FA82E29
:100AC300AC2DAD2C7BFF7A0E797C7E007F06120560
:100AD3005DEF704A7BFF7A0E79831206871212A6A6
:100AE3008F338E328D318C307BFF7A0E79708F3D50
:100AF3008E3C8D3B8C3A120687E4FFFEFDFCAB3344
:100B0300AA32A931A830D31202EE4073E47FFAFE71
:100B1300FDFCA8301202EE506685331B805EA82EC2
:100B2300AC2DAD2C7BFF7A0E79977E007F061205E4
:100B33005DEF704B7BFF7A0E799E1206871212A629
:100B43008F338E328D318C307BFF7A0E79708F3DEF
:100B53008E3C8D3B8C3A120687E4FFFEFDFCAB33E3
:100B6300AA32A931A830D31202EE4013E47FFAFE71
:100B7300FDFCA8301202EE500685331712173522FA
:100B83007400250BF582E43400F583E4F07B017AED
:100B9300007900AD0B8B278A2889298D2AC20DE4A1
:100BA300F52BE52BC39D502DAB27AA28A9291201AC
:100BB3001CFF640D600EEF640A6009EF642060049B
:100BC300EFB4091174012529F529E43528F5281511
:100BD3002A052B80CDE52A7003020D66AB27AA28D0
:100BE300A92912011CFFB4410D90000112013564C3
:100BF300547003020D66EFB44F1E900001120135CD
:100C0300B44B15E512640C7003020D66E50864022B
:100C13006003020D66020CD512011CFFB43E0CE505
:100C230012640C6003020D66020CD5EF642B707C1A
:100C3300752FFF75300E7531AFF53275330412150C
:100C43005CEF6003020CD9AB27AA28A92990000501
:100C530012013524D0F52B7BFF7A0E79B4F53A12C5
:100C63000687AB27E5292407F9E43528FA12134F41
:100C73008F2A7BFF7A0E79CD852A3A120687E4F50F
:100C83002BAB27AA28A929852B827583001201354E
:100C9300643A6004052B80E9052BAB277E00E52928
:100CA300252BF9EE3528FAAD2A021D5BAB27AA28BE
:100CB300A92912011CB4531E752FFF75300E75310F
:100CC300DF75320075330712155CEF7009E512B456
:100CD3000D0475080322E52A640B7035AB27E5295B
:100CE3002401F9E43528FA752FFF75300E7531E7C5
:100CF30075320075330812155CEF7052AB27AA28C2
:100D0300A92912011C24D0F52B7BFF7A0E79F080E0
:100D130039E52A640A7037AB27E5292401F9E4355C
:100D230028FA752FFF75300F753101753200753351
:100D33000712155CEF7017AB27AA28A92912011C0B
:100D430024D0F52B7BFF7A0F7909F53A8012852A97
:100D53003A85273B85283C85293D7BFF7A0F791D02
:100D630012068722253033627500434F3A00536DD4
:100D73006F6B653A004843484F3A005761726E699A
:100D83006E673A002562752020004B300D0A002063
:100D930020202020202020202020202000434F5FDF
:100DA3007761726E696E670D0A00534D4F4B455F55
:100DB3007761726E696E670D0A004348345F77612D
:100DC300726E696E670D0A00434F2C00534D4F4BF3
:100DD300452C004843484F00207761726E696E6767
:100DE3000D0A00496E69742E2E2E0D0A00474554D4
:100DF30020434F0067657420434F2076616C75650F
:100E03000D0A00434F202562750D0A004745542003
:100E1300534D0067657420736D6F6B696E67207641
:100E2300616C75650D0A00536D6F6B653A20256221
:100E3300750D0A00474554204843006765742048F0
:100E430043484F2076616C75650D0A004843484F4F
:100E5300202562750D0A0053455420434F007365E6
:100E63007420434F2076616C75650D0A006E756DB5
:100E7300203D20256C640D0A0053455420534D003A
:100E830073657420736D6F6B696E672076616C7523
:100E9300650D0A0053455420484300736574204888
:100EA30043484F2076616C75650D0A002B49504409
:100EB300005265636569766520436F6E6E4E756D8E
:100EC300626572202562750D0A0052656365697655
:100ED30065206C656E202562750D0A0053454E44EE
:100EE300204F4B002C434F4E4E45435400636F6ECF
:100EF3006E656374206F6B202562750D0A002C43A9
:100F03004C4F53454400646973636F6E6E6563743D
:100F1300206F6B202562750D0A00556E6B6E6F771F
:100F230020636D6428256275293A25730D0A0041F3
:100F3300542B43495053454E443D302C0025627594
:100F43000D0A0073656E642064617461206F6B0D1C
:100F53000A0053656E642064617461206F76657264
:100F63002073656E64206275660D0A0041540D0A94
:100F730000415445300D0A0041542B43574D4F4413
:100F8300453D320D0A0041542B5253540D0A004182
:100F9300542B43575341503D2265737038323636D4
:100FA300222C223132333435363738222C312C344B
:100FB3000D0A0041542B4349504D55583D310D0AFC
:100FC3000041542B4349505345525645523D312C11
:100FD30031323334350D0A00E51214B40E004003E8
:100FE3000210FA900FF475F003A4C58325F0C583AE
:100FF3007302101E0210270210380210420210550D
:101003000210680210770210800210920210B202DE
:1010130010C40210C60210D60210EE751202121C82
:1010230075021D417525047A0F796F1216E68F2616
:101033007D030210EB1216DF8F267D040210EB7581
:10104300250D7BFF7A0F797B1216E88F267D05022B
:1010530010EB7525087BFF7A0F79891216E88F2626
:101063007D060210EB7FF47E017D007C00121ABA2C
:10107300751207221216DF8F267D08806B752523D4
:101083007BFF7A0F79921216E88F267D09805975B6
:10109300250D7BFF7A0F79B6E525FD7C00752C03C2
:1010A300752D0B752EB81216F68F267D0A803975AD
:1010B30025167BFF7A0F79C41216E88F267D0B80E5
:1010C3002780317DE87C037F021214EB8F267D0D90
:1010D300021BB07B017A007940E513FD7C00752C7F
:1010E300011216F08F267D0E021B937BFF7A0F7978
:1010F30046120687E4F51222C200C201C202E518B5
:10110300D3951C400B7BFF7A0D79A0120687D20082
:10111300E519D3951B400B7BFF7A0D79AD1206873A
:10112300D201E51AD39517400B7BFF7A0D79BD12D7
:101133000687D2022000092001062002030211DCE7
:10114300C2B7E4F525F52630001F752503AF25FE4C
:10115300744D2526F9E4A801FCFD7BFF7A0D79CBBC
:101163001200F6E5252526F526300120752506AF64
:10117300257E00744D2526F9E4A801FCFD7BFF7A4A
:101183000D79CF1200F6E5252526F52630022075C8
:101193002504AF257E00744D2526F9E4A801FCFD46
:1011A3007BFF7A0D79D61200F6E5252526F52675FF
:1011B300250AAF257E00744D2526F9E4A801FCFD20
:1011C3007BFF7A0D79DB1200F6E5252526F5267BD4
:1011D300007A00794DFD02193CD2B7228F258B2B63
:1011E3008A2C892DE94A4B6024E52A4529601ED3C0
:1011F300E52A9404E52994007F0040027F01E52558
:10120300D394037E0040027E01EF4E60077E157F7C
:10121300CB0212A1E52A640145297008E525244083
:10122300F52E8006E5252444F52E121AE9E433FF52
:1012330064016060AF2E121AF0E433FF640160545E
:101243001200037F91121AF0E43364016046121B0B
:10125300768025E52A152A70021529144529601D73
:10126300121B76AB2BAA2CA92DEF12016274012558
:101273002DF52DE4352CF52C12000E80D6121B769D
:10128300AB2BAA2CA92DEF120162121D2D121CB932
:10129300D2AFD322121CB9121D1B7E157FE7121C7D
:1012A300A9C322AB2CE52E2407F9E4352DFA8B34A0
:1012B3008A358936E4F537F538F53CF53BF53AF5EB
:1012C3003912011CB42D057537018061AB34AA3581
:1012D300A93612011CFFC3648094B0405FD3EF644E
:1012E3008094B95057E47F0AFEFDFCAB3CAA3BA9AE
:1012F3003AA8391201C3A804C005C006C007AB341D
:10130300AA35A93612011CFF3395E0FEEF24D0FF66
:10131300EE34FFFEE4FCFDD003D002D001EB2FF549
:101323003CEA3EF53BED39F53AEC38F539740125E5
:1013330036F536E43535F53505388090E537AF3C7D
:10134300AE3BAD3AAC3960030202E0228B2C8A2D0E
:10135300892EE4F52FF533F532F531F530F53412F6
:10136300011CB42D05752F018061AB2CAA2DA92E6C
:1013730012011CFFC3648094B0405FD3EF64809478
:10138300B95057E47F0AFEFDFCAB33AA32A931A85A
:10139300301201C3A804C005C006C007AB2CAA2D98
:1013A300A92E12011CFF3395E0FEEF24D0FFEE348B
:1013B300FFFEE4FCFDD003D002D001EB2FF533EAAE
:1013C3003EF532ED39F531EC38F5307401252EF563
:1013D3002EE4352DF52D05348090E52FAF33AE3255
:1013E300AD31AC3060030202E022787FE4F6D8FD31
:1013F30075818C021434021822E493A3F8E493A3B6
:101403004003F68001F208DFF48029E493A3F85443
:1014130007240CC8C333C4540F4420C8834004F4C6
:1014230056800146F6DFE4800B01020408102040D9
:1014330080901BCDE47E019360BCA3FF543F30E555
:1014430009541FFEE493A360010ECF54C025E0604E
:10145300A840B8E493A3FAE493A3F8E493A3C8C51C
:1014630082C8CAC583CAF0A3C8C582C8CAC583CA0D
:10147300DFE9DEE780BEE51D7020753AFF753B0DA1
:10148300753C8785183DFB7A00794D1206817B00F8
:101493007A00794DE4FD7F04804AE51DB40121758E
:1014A3003AFF753B0D753C8785193D7B007A0079C2
:1014B3004D1206817B007A00794DE4FD7F0780247D
:1014C300E51DB40222753AFF753B0D753C87851AFD
:1014D3003D7B007A00794D1206817B007A00794DBD
:1014E300E4FD7F06121A88228F278C288D29E508B0
:1014F30024FE6041240270547508017BFF7A0F7942
:10150300327D0D7C00121D58753AFF753B0F753CFB
:101513004085133D7B007A00792A1206817B007A8D
:1015230000792AEFFD7C00121D58854B09854C0A72
:101533007508028017C3E54C950AFFE54B9509FE34
:10154300D3EF9529EE95284003750805E527D39534
:10155300145003750806AF08228B2C8A2D892EABF5
:101563002FAA30A93112011CFEAB2CAA2DA92E12D1
:10157300011CFF6E702BEF600DE533153370021500
:101583003214453270037F00227401252EF52EE4B8
:10159300352DF52D74012531F531E43530F53080E5
:1015A300BEAB2CAA2DA92E12011CFDD3EE6480F82C
:1015B300ED64809840037F0122AB2FAA30A931123A
:1015C300011CFFC3ED9FFF2270636638353931205C
:1015D3007265616420616420706172616D2065725F
:1015E300720D0A004932432072656164206572728C
:1015F3000D0A00493243207772697465206572725F
:101603000D0A00726561645F766F6C7461676520B3
:1016130070646174206572720D0A00726561645FA3
:10162300766F6C74616765206572720D0A008B2298
:101633008A238924900005120135FF9000041201CA
:1016430035FCC39FFF900003120135FE5FB506040E
:10165300E4FEFF22AB22AA23A92412033B8C82754A
:101663008300ED120174AB22AA23A9249000041273
:10167300013504FF9000031201355F90000412014D
:10168300747E007F01227B007A00790C1217858E0D
:10169300258F26E526F47003E525F4603E854B157A
:1016A300854C16D20DE50BC3943F5013AE0B050BBF
:1016B30074002EF582E43400F583E526F0800612EB
:1016C3000B83E4F50BE526640A45256008E52664EB
:1016D3003E45257006120B83E4F50B227525067A29
:1016E3000F79747BFFE525FD7C00752C03752D03B5
:1016F300752EE8E50824FE6015240270287508019C
:10170300121D58854B09854C0A7508028017C3E5DD
:101713004C950AFFE54B9509FED3EF952EEE952DDB
:101723004003750805E52CD395145003750806AFDF
:101733000822E51D700F753AFF753B0D753C6785F3
:101743001C3DFB8028E51DB40110753AFF753B0D68
:10175300753C67851B3D7B008013E51DB402227534
:101763003AFF753B0D753C6785173D7B007A007921
:101773004D1206817B007A00794D7D017F08121A94
:1017830088228B278A288929900005120135FF902A
:101793000004120135C39FFF900003120135FE5F61
:1017A300D394004027900005120135FF12033B8FAD
:1017B30082758300120135FDEF04AB27AA28A929FE
:1017C3005E900005120174AF057E00227EFF7FFF4D
:1017D30022EFB4080050429017E1F828287302174B
:1017E300F90217FD02180102180502180902180D63
:1017F300021811021815A2A0801AA2A18016A2A293
:101803008012A2A3800EA2A4800AA2958006A296AB
:101813008002A297E433FE80037F0122AF062212E7
:101823001D52121C03121BE9121D557BFF7A0D7901
:10183300E6120687121C62121C1CD2AF12197A120E
:101843001B56121735121B34121A56300CF7C3E508
:101853004C951FFFE54B951EFED3EF94B8EE940B0A
:1018630040E3C20C121B5680DCEFC2AFC2B5121D9F
:101873003BA2E092B5121D3BA2E192B5121D3BA221
:10188300E292B5121D3BA2E392B5121D3BA2E49274
:10189300B5121D3BA2E592B5121D3BA2E692B5120D
:1018A3001D3BA2E792B5121D3BD2B5121D3BD2AF31
:1018B30022C0E0C0F0C083C082C0D075D000C00099
:1018C300C001C002C003C004C005C006C0073098F1
:1018D30007C298AF99121CFD309902C299D007D064
:1018E30006D005D004D003D002D001D000D0D0D090
:1018F30082D083D0F0D0E032C0E0C0F0C083C08299
:10190300C0D075D000C000C001C002C003C004C075
:1019130005C006C007758A66758CFC121D12D007B8
:10192300D006D005D004D003D002D001D000D0D04F
:10193300D082D083D0F0D0E0328B348A358936E53B
:10194300127005E94A4B7002C3228D13E513D39439
:1019530040400C7BFF7A0F7955120687751340AF11
:10196300137E0078407C007D01AB34AA35A9361282
:1019730000F675120CD322E51D70087BFF7A0D79F2
:101983006D801AE51DB401097BFF7A0D7971E4803E
:101993000CE51DB4020C7BFF7A0D7978E4FDFF1290
:1019A3001A887BFF7A0D797E7D01E4FF021A888B0A
:1019B3002F8A3089318C328D33C2ACC299E4FFFE59
:1019C300C3EF9533EE9532501BAB2FAA30A9318F5D
:1019D300828E83120135F5993099FDC2990FBF00AC
:1019E300010E80DCD2AC228B258A268927AB28AA5C
:1019F30029A92AC003C002C001AB25AA26A9271220
:101A0300035BE52B14AB25AA26A92790000312013B
:101A130074900004E4120174900005E4020174ADB3
:101A230007E4FCEDD39407400122AF051217D4EF6E
:101A3300701F121D24AF051217D4EF7014FC121D72
:101A430024AF051217D4EF640160040CBC50EFD32C
:101A530022C322E4FF121A22502A7BFF7A0D798DCA
:101A6300120687051DE51DD394024003E4F51D7B93
:101A7300FF7A0D7992E4FDFF121A8812197A121473
:101A830079121735228F348D358B368A378938ABE7
:101A930036AA37A93812011CFB601BAD35AF3412CF
:101AA3001B0F74012538F538E43537F5370534E570
:101AB30034D3940F80D9228F2A8E298D288C27AF77
:101AC3004CAE4BAC29AD2AC3ED94FFEC94FF50050B
:101AD3000DBD00010CC3E54C9FFBE54B9EFAC3EB28
:101AE3009DEA9C40F022C2AF1200037F90E4FEC245
:101AF30084EF25E0FF9283D2840EBE08F2C28412E3
:101B03001C93D283D284121C93A28322A907E9D304
:101B1300940F501CED94015017ED7005E94480803B
:101B230006BD0107E944C0FF121CF0AF03121CE31A
:101B330022300D19C3E54C9516FFE54B9515FED3E1
:101B4300EF9458EE94024005C20D121C4C121689F4
:101B5300020FDB7B007A007918752900752A03E4EC
:101B6300FF1211DF1214791210FB854B1E854C1FD7
:101B7300D20C22E4FE7D08C284121C93EE25E0FF02
:101B8300A283E4334FFED284121C93DDEAAF062214
:101B9300BF03058D12021D41EF64046003BF0503FB
:101BA300021D47BF0606121D4175120122BF030520
:101BB3008D12021D41EF64046003BF0503021D473C
:101BC300BF0606121D41E4F51222C10C011D0001DE
:101BD3001C96011B96011796024B00000209000098
:101BE300011300C10D007F38121CD67F01121CD6D1
:101BF3007F06121CF0121CD97F0C121CF0021CD998
:101C030075985053890F438920E4F587758DFD75C9
:101C13008BFDD28ED29CD2AC22752801752900751A
:101C23002A80752B807B007A00790C1219EA7512D1
:101C3300012274FFFDFC121C98EF30E709ED1D70C3
:101C4300011CED4C70F0021D10120B90E4F50BFE1D
:101C53007F40FD7B017A007900120581C20D22537A
:101C630089F0438901758A66758CFCC28DD28CD24A
:101C7300A9227F967E007D007C00121ABA854B094B
:101C8300854C0A22C284121C93D283121C93D284E1
:101C93007F02DFFE22C280D281D282121D10AF905A
:101CA300C282121D10228F828E83E493FF6006127C
:101CB3001CC8A380F522C284121C93C283121C8EFB
:101CC300D283021C93C2ACC2998F993099FDC299F9
:101CD300D2AC22121CF0007F027EC7DEFEDFFC22A4
:101CE300AE07121C35D280121D08C28222AE071223
:101CF3001C35C280121D08C28222AD077B007A0008
:101D0300790C021631C281C2828E90D282002205E2
:101D13004CE54C7002054B227F127EEBDEFEDFFCAE
:101D2300227F097EF4DEFEDFFC22121C87C28402BE
:101D33001C9312186C7F0022007F2CDFFE22E4F537
:101D430008F51422E4F508051422D284D28322D2A2
:0B1D5300B522021D4D0219B2020981E9
:00000001FF
